{
  "contracts/LiquidityPool.sol": {
    "LiquidityPool": {
      "abi": [
        {
          "inputs": [],
          "stateMutability": "nonpayable",
          "type": "constructor"
        },
        {
          "inputs": [],
          "name": "getBalance",
          "outputs": [
            {
              "internalType": "uint256",
              "name": "bal",
              "type": "uint256"
            }
          ],
          "stateMutability": "view",
          "type": "function"
        },
        {
          "inputs": [],
          "name": "owner",
          "outputs": [
            {
              "internalType": "address",
              "name": "",
              "type": "address"
            }
          ],
          "stateMutability": "view",
          "type": "function"
        },
        {
          "inputs": [],
          "name": "reservepool",
          "outputs": [
            {
              "internalType": "contract ReservePool",
              "name": "",
              "type": "address"
            }
          ],
          "stateMutability": "view",
          "type": "function"
        },
        {
          "inputs": [
            {
              "internalType": "address payable",
              "name": "_reservepool",
              "type": "address"
            }
          ],
          "name": "setAddress",
          "outputs": [],
          "stateMutability": "nonpayable",
          "type": "function"
        },
        {
          "inputs": [],
          "name": "tokenpay",
          "outputs": [
            {
              "internalType": "contract Tokenpay",
              "name": "",
              "type": "address"
            }
          ],
          "stateMutability": "view",
          "type": "function"
        },
        {
          "stateMutability": "payable",
          "type": "receive"
        }
      ],
      "evm": {
        "bytecode": {
          "linkReferences": {},
          "object": "608060405234801561001057600080fd5b50336000806101000a81548173ffffffffffffffffffffffffffffffffffffffff021916908373ffffffffffffffffffffffffffffffffffffffff1602179055506105fa806100606000396000f3fe60806040526004361061004e5760003560e01c806312065fe014610062578063160124361461008d57806322a1d71c146100b85780638da5cb5b146100e3578063e30081a01461010e5761005d565b3661005d5761005b610137565b005b600080fd5b34801561006e57600080fd5b506100776101c9565b604051610084919061032c565b60405180910390f35b34801561009957600080fd5b506100a26101d1565b6040516100af91906103c6565b60405180910390f35b3480156100c457600080fd5b506100cd6101f7565b6040516100da9190610414565b60405180910390f35b3480156100ef57600080fd5b506100f861021d565b6040516101059190610450565b60405180910390f35b34801561011a57600080fd5b50610135600480360381019061013091906104ae565b610241565b005b600260009054906101000a900473ffffffffffffffffffffffffffffffffffffffff1673ffffffffffffffffffffffffffffffffffffffff163373ffffffffffffffffffffffffffffffffffffffff16146101c7576040517f08c379a00000000000000000000000000000000000000000000000000000000081526004016101be90610538565b60405180910390fd5b565b600047905090565b600160009054906101000a900473ffffffffffffffffffffffffffffffffffffffff1681565b600260009054906101000a900473ffffffffffffffffffffffffffffffffffffffff1681565b60008054906101000a900473ffffffffffffffffffffffffffffffffffffffff1681565b60008054906101000a900473ffffffffffffffffffffffffffffffffffffffff1673ffffffffffffffffffffffffffffffffffffffff163373ffffffffffffffffffffffffffffffffffffffff16146102cf576040517f08c379a00000000000000000000000000000000000000000000000000000000081526004016102c6906105a4565b60405180910390fd5b80600260006101000a81548173ffffffffffffffffffffffffffffffffffffffff021916908373ffffffffffffffffffffffffffffffffffffffff16021790555050565b6000819050919050565b61032681610313565b82525050565b6000602082019050610341600083018461031d565b92915050565b600073ffffffffffffffffffffffffffffffffffffffff82169050919050565b6000819050919050565b600061038c61038761038284610347565b610367565b610347565b9050919050565b600061039e82610371565b9050919050565b60006103b082610393565b9050919050565b6103c0816103a5565b82525050565b60006020820190506103db60008301846103b7565b92915050565b60006103ec82610371565b9050919050565b60006103fe826103e1565b9050919050565b61040e816103f3565b82525050565b60006020820190506104296000830184610405565b92915050565b600061043a82610347565b9050919050565b61044a8161042f565b82525050565b60006020820190506104656000830184610441565b92915050565b600080fd5b600061047b82610347565b9050919050565b61048b81610470565b811461049657600080fd5b50565b6000813590506104a881610482565b92915050565b6000602082840312156104c4576104c361046b565b5b60006104d284828501610499565b91505092915050565b600082825260208201905092915050565b7f4f6e6c792072657365727665706f6f6c20616464726573730000000000000000600082015250565b60006105226018836104db565b915061052d826104ec565b602082019050919050565b6000602082019050818103600083015261055181610515565b9050919050565b7f4e6f74206f776e65722121000000000000000000000000000000000000000000600082015250565b600061058e600b836104db565b915061059982610558565b602082019050919050565b600060208201905081810360008301526105bd81610581565b905091905056fea2646970667358221220665ccea768d5b368cc1be4c457cde4f8a79be613db39f5437532c6f4d1bd58f264736f6c63430008090033",
          "opcodes": "PUSH1 0x80 PUSH1 0x40 MSTORE CALLVALUE DUP1 ISZERO PUSH2 0x10 JUMPI PUSH1 0x0 DUP1 REVERT JUMPDEST POP CALLER PUSH1 0x0 DUP1 PUSH2 0x100 EXP DUP2 SLOAD DUP2 PUSH20 0xFFFFFFFFFFFFFFFFFFFFFFFFFFFFFFFFFFFFFFFF MUL NOT AND SWAP1 DUP4 PUSH20 0xFFFFFFFFFFFFFFFFFFFFFFFFFFFFFFFFFFFFFFFF AND MUL OR SWAP1 SSTORE POP PUSH2 0x5FA DUP1 PUSH2 0x60 PUSH1 0x0 CODECOPY PUSH1 0x0 RETURN INVALID PUSH1 0x80 PUSH1 0x40 MSTORE PUSH1 0x4 CALLDATASIZE LT PUSH2 0x4E JUMPI PUSH1 0x0 CALLDATALOAD PUSH1 0xE0 SHR DUP1 PUSH4 0x12065FE0 EQ PUSH2 0x62 JUMPI DUP1 PUSH4 0x16012436 EQ PUSH2 0x8D JUMPI DUP1 PUSH4 0x22A1D71C EQ PUSH2 0xB8 JUMPI DUP1 PUSH4 0x8DA5CB5B EQ PUSH2 0xE3 JUMPI DUP1 PUSH4 0xE30081A0 EQ PUSH2 0x10E JUMPI PUSH2 0x5D JUMP JUMPDEST CALLDATASIZE PUSH2 0x5D JUMPI PUSH2 0x5B PUSH2 0x137 JUMP JUMPDEST STOP JUMPDEST PUSH1 0x0 DUP1 REVERT JUMPDEST CALLVALUE DUP1 ISZERO PUSH2 0x6E JUMPI PUSH1 0x0 DUP1 REVERT JUMPDEST POP PUSH2 0x77 PUSH2 0x1C9 JUMP JUMPDEST PUSH1 0x40 MLOAD PUSH2 0x84 SWAP2 SWAP1 PUSH2 0x32C JUMP JUMPDEST PUSH1 0x40 MLOAD DUP1 SWAP2 SUB SWAP1 RETURN JUMPDEST CALLVALUE DUP1 ISZERO PUSH2 0x99 JUMPI PUSH1 0x0 DUP1 REVERT JUMPDEST POP PUSH2 0xA2 PUSH2 0x1D1 JUMP JUMPDEST PUSH1 0x40 MLOAD PUSH2 0xAF SWAP2 SWAP1 PUSH2 0x3C6 JUMP JUMPDEST PUSH1 0x40 MLOAD DUP1 SWAP2 SUB SWAP1 RETURN JUMPDEST CALLVALUE DUP1 ISZERO PUSH2 0xC4 JUMPI PUSH1 0x0 DUP1 REVERT JUMPDEST POP PUSH2 0xCD PUSH2 0x1F7 JUMP JUMPDEST PUSH1 0x40 MLOAD PUSH2 0xDA SWAP2 SWAP1 PUSH2 0x414 JUMP JUMPDEST PUSH1 0x40 MLOAD DUP1 SWAP2 SUB SWAP1 RETURN JUMPDEST CALLVALUE DUP1 ISZERO PUSH2 0xEF JUMPI PUSH1 0x0 DUP1 REVERT JUMPDEST POP PUSH2 0xF8 PUSH2 0x21D JUMP JUMPDEST PUSH1 0x40 MLOAD PUSH2 0x105 SWAP2 SWAP1 PUSH2 0x450 JUMP JUMPDEST PUSH1 0x40 MLOAD DUP1 SWAP2 SUB SWAP1 RETURN JUMPDEST CALLVALUE DUP1 ISZERO PUSH2 0x11A JUMPI PUSH1 0x0 DUP1 REVERT JUMPDEST POP PUSH2 0x135 PUSH1 0x4 DUP1 CALLDATASIZE SUB DUP2 ADD SWAP1 PUSH2 0x130 SWAP2 SWAP1 PUSH2 0x4AE JUMP JUMPDEST PUSH2 0x241 JUMP JUMPDEST STOP JUMPDEST PUSH1 0x2 PUSH1 0x0 SWAP1 SLOAD SWAP1 PUSH2 0x100 EXP SWAP1 DIV PUSH20 0xFFFFFFFFFFFFFFFFFFFFFFFFFFFFFFFFFFFFFFFF AND PUSH20 0xFFFFFFFFFFFFFFFFFFFFFFFFFFFFFFFFFFFFFFFF AND CALLER PUSH20 0xFFFFFFFFFFFFFFFFFFFFFFFFFFFFFFFFFFFFFFFF AND EQ PUSH2 0x1C7 JUMPI PUSH1 0x40 MLOAD PUSH32 0x8C379A000000000000000000000000000000000000000000000000000000000 DUP2 MSTORE PUSH1 0x4 ADD PUSH2 0x1BE SWAP1 PUSH2 0x538 JUMP JUMPDEST PUSH1 0x40 MLOAD DUP1 SWAP2 SUB SWAP1 REVERT JUMPDEST JUMP JUMPDEST PUSH1 0x0 SELFBALANCE SWAP1 POP SWAP1 JUMP JUMPDEST PUSH1 0x1 PUSH1 0x0 SWAP1 SLOAD SWAP1 PUSH2 0x100 EXP SWAP1 DIV PUSH20 0xFFFFFFFFFFFFFFFFFFFFFFFFFFFFFFFFFFFFFFFF AND DUP2 JUMP JUMPDEST PUSH1 0x2 PUSH1 0x0 SWAP1 SLOAD SWAP1 PUSH2 0x100 EXP SWAP1 DIV PUSH20 0xFFFFFFFFFFFFFFFFFFFFFFFFFFFFFFFFFFFFFFFF AND DUP2 JUMP JUMPDEST PUSH1 0x0 DUP1 SLOAD SWAP1 PUSH2 0x100 EXP SWAP1 DIV PUSH20 0xFFFFFFFFFFFFFFFFFFFFFFFFFFFFFFFFFFFFFFFF AND DUP2 JUMP JUMPDEST PUSH1 0x0 DUP1 SLOAD SWAP1 PUSH2 0x100 EXP SWAP1 DIV PUSH20 0xFFFFFFFFFFFFFFFFFFFFFFFFFFFFFFFFFFFFFFFF AND PUSH20 0xFFFFFFFFFFFFFFFFFFFFFFFFFFFFFFFFFFFFFFFF AND CALLER PUSH20 0xFFFFFFFFFFFFFFFFFFFFFFFFFFFFFFFFFFFFFFFF AND EQ PUSH2 0x2CF JUMPI PUSH1 0x40 MLOAD PUSH32 0x8C379A000000000000000000000000000000000000000000000000000000000 DUP2 MSTORE PUSH1 0x4 ADD PUSH2 0x2C6 SWAP1 PUSH2 0x5A4 JUMP JUMPDEST PUSH1 0x40 MLOAD DUP1 SWAP2 SUB SWAP1 REVERT JUMPDEST DUP1 PUSH1 0x2 PUSH1 0x0 PUSH2 0x100 EXP DUP2 SLOAD DUP2 PUSH20 0xFFFFFFFFFFFFFFFFFFFFFFFFFFFFFFFFFFFFFFFF MUL NOT AND SWAP1 DUP4 PUSH20 0xFFFFFFFFFFFFFFFFFFFFFFFFFFFFFFFFFFFFFFFF AND MUL OR SWAP1 SSTORE POP POP JUMP JUMPDEST PUSH1 0x0 DUP2 SWAP1 POP SWAP2 SWAP1 POP JUMP JUMPDEST PUSH2 0x326 DUP2 PUSH2 0x313 JUMP JUMPDEST DUP3 MSTORE POP POP JUMP JUMPDEST PUSH1 0x0 PUSH1 0x20 DUP3 ADD SWAP1 POP PUSH2 0x341 PUSH1 0x0 DUP4 ADD DUP5 PUSH2 0x31D JUMP JUMPDEST SWAP3 SWAP2 POP POP JUMP JUMPDEST PUSH1 0x0 PUSH20 0xFFFFFFFFFFFFFFFFFFFFFFFFFFFFFFFFFFFFFFFF DUP3 AND SWAP1 POP SWAP2 SWAP1 POP JUMP JUMPDEST PUSH1 0x0 DUP2 SWAP1 POP SWAP2 SWAP1 POP JUMP JUMPDEST PUSH1 0x0 PUSH2 0x38C PUSH2 0x387 PUSH2 0x382 DUP5 PUSH2 0x347 JUMP JUMPDEST PUSH2 0x367 JUMP JUMPDEST PUSH2 0x347 JUMP JUMPDEST SWAP1 POP SWAP2 SWAP1 POP JUMP JUMPDEST PUSH1 0x0 PUSH2 0x39E DUP3 PUSH2 0x371 JUMP JUMPDEST SWAP1 POP SWAP2 SWAP1 POP JUMP JUMPDEST PUSH1 0x0 PUSH2 0x3B0 DUP3 PUSH2 0x393 JUMP JUMPDEST SWAP1 POP SWAP2 SWAP1 POP JUMP JUMPDEST PUSH2 0x3C0 DUP2 PUSH2 0x3A5 JUMP JUMPDEST DUP3 MSTORE POP POP JUMP JUMPDEST PUSH1 0x0 PUSH1 0x20 DUP3 ADD SWAP1 POP PUSH2 0x3DB PUSH1 0x0 DUP4 ADD DUP5 PUSH2 0x3B7 JUMP JUMPDEST SWAP3 SWAP2 POP POP JUMP JUMPDEST PUSH1 0x0 PUSH2 0x3EC DUP3 PUSH2 0x371 JUMP JUMPDEST SWAP1 POP SWAP2 SWAP1 POP JUMP JUMPDEST PUSH1 0x0 PUSH2 0x3FE DUP3 PUSH2 0x3E1 JUMP JUMPDEST SWAP1 POP SWAP2 SWAP1 POP JUMP JUMPDEST PUSH2 0x40E DUP2 PUSH2 0x3F3 JUMP JUMPDEST DUP3 MSTORE POP POP JUMP JUMPDEST PUSH1 0x0 PUSH1 0x20 DUP3 ADD SWAP1 POP PUSH2 0x429 PUSH1 0x0 DUP4 ADD DUP5 PUSH2 0x405 JUMP JUMPDEST SWAP3 SWAP2 POP POP JUMP JUMPDEST PUSH1 0x0 PUSH2 0x43A DUP3 PUSH2 0x347 JUMP JUMPDEST SWAP1 POP SWAP2 SWAP1 POP JUMP JUMPDEST PUSH2 0x44A DUP2 PUSH2 0x42F JUMP JUMPDEST DUP3 MSTORE POP POP JUMP JUMPDEST PUSH1 0x0 PUSH1 0x20 DUP3 ADD SWAP1 POP PUSH2 0x465 PUSH1 0x0 DUP4 ADD DUP5 PUSH2 0x441 JUMP JUMPDEST SWAP3 SWAP2 POP POP JUMP JUMPDEST PUSH1 0x0 DUP1 REVERT JUMPDEST PUSH1 0x0 PUSH2 0x47B DUP3 PUSH2 0x347 JUMP JUMPDEST SWAP1 POP SWAP2 SWAP1 POP JUMP JUMPDEST PUSH2 0x48B DUP2 PUSH2 0x470 JUMP JUMPDEST DUP2 EQ PUSH2 0x496 JUMPI PUSH1 0x0 DUP1 REVERT JUMPDEST POP JUMP JUMPDEST PUSH1 0x0 DUP2 CALLDATALOAD SWAP1 POP PUSH2 0x4A8 DUP2 PUSH2 0x482 JUMP JUMPDEST SWAP3 SWAP2 POP POP JUMP JUMPDEST PUSH1 0x0 PUSH1 0x20 DUP3 DUP5 SUB SLT ISZERO PUSH2 0x4C4 JUMPI PUSH2 0x4C3 PUSH2 0x46B JUMP JUMPDEST JUMPDEST PUSH1 0x0 PUSH2 0x4D2 DUP5 DUP3 DUP6 ADD PUSH2 0x499 JUMP JUMPDEST SWAP2 POP POP SWAP3 SWAP2 POP POP JUMP JUMPDEST PUSH1 0x0 DUP3 DUP3 MSTORE PUSH1 0x20 DUP3 ADD SWAP1 POP SWAP3 SWAP2 POP POP JUMP JUMPDEST PUSH32 0x4F6E6C792072657365727665706F6F6C20616464726573730000000000000000 PUSH1 0x0 DUP3 ADD MSTORE POP JUMP JUMPDEST PUSH1 0x0 PUSH2 0x522 PUSH1 0x18 DUP4 PUSH2 0x4DB JUMP JUMPDEST SWAP2 POP PUSH2 0x52D DUP3 PUSH2 0x4EC JUMP JUMPDEST PUSH1 0x20 DUP3 ADD SWAP1 POP SWAP2 SWAP1 POP JUMP JUMPDEST PUSH1 0x0 PUSH1 0x20 DUP3 ADD SWAP1 POP DUP2 DUP2 SUB PUSH1 0x0 DUP4 ADD MSTORE PUSH2 0x551 DUP2 PUSH2 0x515 JUMP JUMPDEST SWAP1 POP SWAP2 SWAP1 POP JUMP JUMPDEST PUSH32 0x4E6F74206F776E65722121000000000000000000000000000000000000000000 PUSH1 0x0 DUP3 ADD MSTORE POP JUMP JUMPDEST PUSH1 0x0 PUSH2 0x58E PUSH1 0xB DUP4 PUSH2 0x4DB JUMP JUMPDEST SWAP2 POP PUSH2 0x599 DUP3 PUSH2 0x558 JUMP JUMPDEST PUSH1 0x20 DUP3 ADD SWAP1 POP SWAP2 SWAP1 POP JUMP JUMPDEST PUSH1 0x0 PUSH1 0x20 DUP3 ADD SWAP1 POP DUP2 DUP2 SUB PUSH1 0x0 DUP4 ADD MSTORE PUSH2 0x5BD DUP2 PUSH2 0x581 JUMP JUMPDEST SWAP1 POP SWAP2 SWAP1 POP JUMP INVALID LOG2 PUSH5 0x6970667358 0x22 SLT KECCAK256 PUSH7 0x5CCEA768D5B368 0xCC SHL 0xE4 0xC4 JUMPI 0xCD 0xE4 0xF8 0xA7 SWAP12 0xE6 SGT 0xDB CODECOPY CREATE2 NUMBER PUSH22 0x32C6F4D1BD58F264736F6C6343000809003300000000 "
        },
        "methodIdentifiers": {
          "getBalance()": "12065fe0",
          "owner()": "8da5cb5b",
          "reservepool()": "22a1d71c",
          "setAddress(address)": "e30081a0",
          "tokenpay()": "16012436"
        }
      }
    }
  }
}