{
  "_format": "hh-sol-artifact-1",
  "contractName": "ReservePool",
  "sourceName": "contracts/ReservePool.sol",
  "abi": [
    {
      "inputs": [
        {
          "internalType": "address payable",
          "name": "_liquidity",
          "type": "address"
        },
        {
          "internalType": "address",
          "name": "_staking",
          "type": "address"
        }
      ],
      "stateMutability": "nonpayable",
      "type": "constructor"
    },
    {
      "anonymous": false,
      "inputs": [
        {
          "indexed": true,
          "internalType": "address",
          "name": "owner",
          "type": "address"
        },
        {
          "indexed": true,
          "internalType": "address",
          "name": "spender",
          "type": "address"
        },
        {
          "indexed": false,
          "internalType": "uint256",
          "name": "value",
          "type": "uint256"
        }
      ],
      "name": "Approval",
      "type": "event"
    },
    {
      "anonymous": false,
      "inputs": [
        {
          "indexed": true,
          "internalType": "address",
          "name": "from",
          "type": "address"
        },
        {
          "indexed": true,
          "internalType": "address",
          "name": "to",
          "type": "address"
        },
        {
          "indexed": false,
          "internalType": "uint256",
          "name": "value",
          "type": "uint256"
        }
      ],
      "name": "Transfer",
      "type": "event"
    },
    {
      "inputs": [
        {
          "internalType": "address",
          "name": "",
          "type": "address"
        }
      ],
      "name": "LiquidityBalance",
      "outputs": [
        {
          "internalType": "uint256",
          "name": "",
          "type": "uint256"
        }
      ],
      "stateMutability": "view",
      "type": "function"
    },
    {
      "inputs": [
        {
          "internalType": "address",
          "name": "",
          "type": "address"
        }
      ],
      "name": "ReserveBalances",
      "outputs": [
        {
          "internalType": "uint256",
          "name": "",
          "type": "uint256"
        }
      ],
      "stateMutability": "view",
      "type": "function"
    },
    {
      "inputs": [
        {
          "internalType": "address",
          "name": "owner",
          "type": "address"
        },
        {
          "internalType": "address",
          "name": "spender",
          "type": "address"
        }
      ],
      "name": "allowance",
      "outputs": [
        {
          "internalType": "uint256",
          "name": "",
          "type": "uint256"
        }
      ],
      "stateMutability": "view",
      "type": "function"
    },
    {
      "inputs": [
        {
          "internalType": "address",
          "name": "spender",
          "type": "address"
        },
        {
          "internalType": "uint256",
          "name": "amount",
          "type": "uint256"
        }
      ],
      "name": "approve",
      "outputs": [
        {
          "internalType": "bool",
          "name": "",
          "type": "bool"
        }
      ],
      "stateMutability": "nonpayable",
      "type": "function"
    },
    {
      "inputs": [
        {
          "internalType": "address",
          "name": "account",
          "type": "address"
        }
      ],
      "name": "balanceOf",
      "outputs": [
        {
          "internalType": "uint256",
          "name": "",
          "type": "uint256"
        }
      ],
      "stateMutability": "view",
      "type": "function"
    },
    {
      "inputs": [
        {
          "internalType": "uint256",
          "name": "amount",
          "type": "uint256"
        }
      ],
      "name": "burn",
      "outputs": [],
      "stateMutability": "nonpayable",
      "type": "function"
    },
    {
      "inputs": [
        {
          "internalType": "address",
          "name": "account",
          "type": "address"
        },
        {
          "internalType": "uint256",
          "name": "amount",
          "type": "uint256"
        }
      ],
      "name": "burnFrom",
      "outputs": [],
      "stateMutability": "nonpayable",
      "type": "function"
    },
    {
      "inputs": [],
      "name": "decimals",
      "outputs": [
        {
          "internalType": "uint8",
          "name": "",
          "type": "uint8"
        }
      ],
      "stateMutability": "view",
      "type": "function"
    },
    {
      "inputs": [
        {
          "internalType": "address",
          "name": "spender",
          "type": "address"
        },
        {
          "internalType": "uint256",
          "name": "subtractedValue",
          "type": "uint256"
        }
      ],
      "name": "decreaseAllowance",
      "outputs": [
        {
          "internalType": "bool",
          "name": "",
          "type": "bool"
        }
      ],
      "stateMutability": "nonpayable",
      "type": "function"
    },
    {
      "inputs": [
        {
          "internalType": "address",
          "name": "spender",
          "type": "address"
        },
        {
          "internalType": "uint256",
          "name": "addedValue",
          "type": "uint256"
        }
      ],
      "name": "increaseAllowance",
      "outputs": [
        {
          "internalType": "bool",
          "name": "",
          "type": "bool"
        }
      ],
      "stateMutability": "nonpayable",
      "type": "function"
    },
    {
      "inputs": [],
      "name": "invest",
      "outputs": [],
      "stateMutability": "payable",
      "type": "function"
    },
    {
      "inputs": [],
      "name": "liquidity",
      "outputs": [
        {
          "internalType": "contract LiquidityPool",
          "name": "",
          "type": "address"
        }
      ],
      "stateMutability": "view",
      "type": "function"
    },
    {
      "inputs": [
        {
          "internalType": "address",
          "name": "to",
          "type": "address"
        },
        {
          "internalType": "uint256",
          "name": "amount",
          "type": "uint256"
        }
      ],
      "name": "mint",
      "outputs": [],
      "stateMutability": "nonpayable",
      "type": "function"
    },
    {
      "inputs": [],
      "name": "name",
      "outputs": [
        {
          "internalType": "string",
          "name": "",
          "type": "string"
        }
      ],
      "stateMutability": "view",
      "type": "function"
    },
    {
      "inputs": [],
      "name": "stake",
      "outputs": [],
      "stateMutability": "nonpayable",
      "type": "function"
    },
    {
      "inputs": [],
      "name": "staking",
      "outputs": [
        {
          "internalType": "contract StakingPool",
          "name": "",
          "type": "address"
        }
      ],
      "stateMutability": "view",
      "type": "function"
    },
    {
      "inputs": [],
      "name": "symbol",
      "outputs": [
        {
          "internalType": "string",
          "name": "",
          "type": "string"
        }
      ],
      "stateMutability": "view",
      "type": "function"
    },
    {
      "inputs": [],
      "name": "totalSupply",
      "outputs": [
        {
          "internalType": "uint256",
          "name": "",
          "type": "uint256"
        }
      ],
      "stateMutability": "view",
      "type": "function"
    },
    {
      "inputs": [
        {
          "internalType": "address",
          "name": "to",
          "type": "address"
        },
        {
          "internalType": "uint256",
          "name": "amount",
          "type": "uint256"
        }
      ],
      "name": "transfer",
      "outputs": [
        {
          "internalType": "bool",
          "name": "",
          "type": "bool"
        }
      ],
      "stateMutability": "nonpayable",
      "type": "function"
    },
    {
      "inputs": [
        {
          "internalType": "address",
          "name": "from",
          "type": "address"
        },
        {
          "internalType": "address",
          "name": "to",
          "type": "address"
        },
        {
          "internalType": "uint256",
          "name": "amount",
          "type": "uint256"
        }
      ],
      "name": "transferFrom",
      "outputs": [
        {
          "internalType": "bool",
          "name": "",
          "type": "bool"
        }
      ],
      "stateMutability": "nonpayable",
      "type": "function"
    },
    {
      "inputs": [],
      "name": "withdraw",
      "outputs": [],
      "stateMutability": "nonpayable",
      "type": "function"
    },
    {
      "stateMutability": "payable",
      "type": "receive"
    }
  ],
  "bytecode": "0x60806040523480156200001157600080fd5b5060405162002a7e38038062002a7e8339818101604052810190620000379190620002c0565b6040518060400160405280600881526020017f546f6b656e7061790000000000000000000000000000000000000000000000008152506040518060400160405280600381526020017f544b5000000000000000000000000000000000000000000000000000000000008152508160039080519060200190620000bb92919062000161565b508060049080519060200190620000d492919062000161565b50505081600560006101000a81548173ffffffffffffffffffffffffffffffffffffffff021916908373ffffffffffffffffffffffffffffffffffffffff16021790555080600660006101000a81548173ffffffffffffffffffffffffffffffffffffffff021916908373ffffffffffffffffffffffffffffffffffffffff16021790555050506200036c565b8280546200016f9062000336565b90600052602060002090601f016020900481019282620001935760008555620001df565b82601f10620001ae57805160ff1916838001178555620001df565b82800160010185558215620001df579182015b82811115620001de578251825591602001919060010190620001c1565b5b509050620001ee9190620001f2565b5090565b5b808211156200020d576000816000905550600101620001f3565b5090565b600080fd5b600073ffffffffffffffffffffffffffffffffffffffff82169050919050565b6000620002438262000216565b9050919050565b620002558162000236565b81146200026157600080fd5b50565b60008151905062000275816200024a565b92915050565b6000620002888262000216565b9050919050565b6200029a816200027b565b8114620002a657600080fd5b50565b600081519050620002ba816200028f565b92915050565b60008060408385031215620002da57620002d962000211565b5b6000620002ea8582860162000264565b9250506020620002fd85828601620002a9565b9150509250929050565b7f4e487b7100000000000000000000000000000000000000000000000000000000600052602260045260246000fd5b600060028204905060018216806200034f57607f821691505b6020821081141562000366576200036562000307565b5b50919050565b612702806200037c6000396000f3fe60806040526004361061012e5760003560e01c806342966c68116100ab578063820064d81161006f578063820064d8146103eb57806395d89b4114610428578063a457c2d714610453578063a9059cbb14610490578063dd62ed3e146104cd578063e8b5e51f1461050a57610135565b806342966c68146102f45780634cf088d91461031d578063584073691461034857806370a082311461038557806379cc6790146103c257610135565b8063313ce567116100f2578063313ce5671461023557806339509351146102605780633a4b66f11461029d5780633ccfd60b146102b457806340c10f19146102cb57610135565b806306fdde031461013a578063095ea7b31461016557806318160ddd146101a25780631a686502146101cd57806323b872dd146101f857610135565b3661013557005b600080fd5b34801561014657600080fd5b5061014f610514565b60405161015c91906119c1565b60405180910390f35b34801561017157600080fd5b5061018c60048036038101906101879190611a7c565b6105a6565b6040516101999190611ad7565b60405180910390f35b3480156101ae57600080fd5b506101b76105c9565b6040516101c49190611b01565b60405180910390f35b3480156101d957600080fd5b506101e26105d3565b6040516101ef9190611b7b565b60405180910390f35b34801561020457600080fd5b5061021f600480360381019061021a9190611b96565b6105f9565b60405161022c9190611ad7565b60405180910390f35b34801561024157600080fd5b5061024a610628565b6040516102579190611c05565b60405180910390f35b34801561026c57600080fd5b5061028760048036038101906102829190611a7c565b610631565b6040516102949190611ad7565b60405180910390f35b3480156102a957600080fd5b506102b2610668565b005b3480156102c057600080fd5b506102c9610901565b005b3480156102d757600080fd5b506102f260048036038101906102ed9190611a7c565b610b55565b005b34801561030057600080fd5b5061031b60048036038101906103169190611c20565b610b63565b005b34801561032957600080fd5b50610332610b77565b60405161033f9190611c80565b60405180910390f35b34801561035457600080fd5b5061036f600480360381019061036a9190611c9b565b610b9d565b60405161037c9190611b01565b60405180910390f35b34801561039157600080fd5b506103ac60048036038101906103a79190611c9b565b610bb5565b6040516103b99190611b01565b60405180910390f35b3480156103ce57600080fd5b506103e960048036038101906103e49190611a7c565b610bfd565b005b3480156103f757600080fd5b50610412600480360381019061040d9190611c9b565b610c1d565b60405161041f9190611b01565b60405180910390f35b34801561043457600080fd5b5061043d610c35565b60405161044a91906119c1565b60405180910390f35b34801561045f57600080fd5b5061047a60048036038101906104759190611a7c565b610cc7565b6040516104879190611ad7565b60405180910390f35b34801561049c57600080fd5b506104b760048036038101906104b29190611a7c565b610d3e565b6040516104c49190611ad7565b60405180910390f35b3480156104d957600080fd5b506104f460048036038101906104ef9190611cc8565b610d61565b6040516105019190611b01565b60405180910390f35b610512610de8565b005b60606003805461052390611d37565b80601f016020809104026020016040519081016040528092919081815260200182805461054f90611d37565b801561059c5780601f106105715761010080835404028352916020019161059c565b820191906000526020600020905b81548152906001019060200180831161057f57829003601f168201915b5050505050905090565b6000806105b1611107565b90506105be81858561110f565b600191505092915050565b6000600254905090565b600560009054906101000a900473ffffffffffffffffffffffffffffffffffffffff1681565b600080610604611107565b90506106118582856112da565b61061c858585611366565b60019150509392505050565b60006012905090565b60008061063c611107565b905061065d81858561064e8589610d61565b6106589190611d98565b61110f565b600191505092915050565b6000600860003373ffffffffffffffffffffffffffffffffffffffff1673ffffffffffffffffffffffffffffffffffffffff16815260200190815260200160002054116106ea576040517f08c379a00000000000000000000000000000000000000000000000000000000081526004016106e190611e3a565b60405180910390fd5b600760003373ffffffffffffffffffffffffffffffffffffffff1673ffffffffffffffffffffffffffffffffffffffff16815260200190815260200160002054421161076b576040517f08c379a000000000000000000000000000000000000000000000000000000000815260040161076290611ea6565b60405180910390fd5b6000600860003373ffffffffffffffffffffffffffffffffffffffff1673ffffffffffffffffffffffffffffffffffffffff1681526020019081526020016000205490506000600860003373ffffffffffffffffffffffffffffffffffffffff1673ffffffffffffffffffffffffffffffffffffffff1681526020019081526020016000208190555060006107ff33610bb5565b905061082e33600660009054906101000a900473ffffffffffffffffffffffffffffffffffffffff1683611366565b6000600560009054906101000a900473ffffffffffffffffffffffffffffffffffffffff1673ffffffffffffffffffffffffffffffffffffffff168360405161087690611ef7565b60006040518083038185875af1925050503d80600081146108b3576040519150601f19603f3d011682016040523d82523d6000602084013e6108b8565b606091505b50509050806108fc576040517f08c379a00000000000000000000000000000000000000000000000000000000081526004016108f390611f58565b60405180910390fd5b505050565b6000600860003373ffffffffffffffffffffffffffffffffffffffff1673ffffffffffffffffffffffffffffffffffffffff1681526020019081526020016000205411610983576040517f08c379a000000000000000000000000000000000000000000000000000000000815260040161097a90611e3a565b60405180910390fd5b600760003373ffffffffffffffffffffffffffffffffffffffff1673ffffffffffffffffffffffffffffffffffffffff168152602001908152602001600020544211610a04576040517f08c379a00000000000000000000000000000000000000000000000000000000081526004016109fb90611ea6565b60405180910390fd5b6000600860003373ffffffffffffffffffffffffffffffffffffffff1673ffffffffffffffffffffffffffffffffffffffff1681526020019081526020016000205490506000600860003373ffffffffffffffffffffffffffffffffffffffff1673ffffffffffffffffffffffffffffffffffffffff168152602001908152602001600020819055506000610a9833610bb5565b9050610aa433826115e7565b60003373ffffffffffffffffffffffffffffffffffffffff1683604051610aca90611ef7565b60006040518083038185875af1925050503d8060008114610b07576040519150601f19603f3d011682016040523d82523d6000602084013e610b0c565b606091505b5050905080610b50576040517f08c379a0000000000000000000000000000000000000000000000000000000008152600401610b4790611f58565b60405180910390fd5b505050565b610b5f82826117be565b5050565b610b74610b6e611107565b826115e7565b50565b600660009054906101000a900473ffffffffffffffffffffffffffffffffffffffff1681565b60096020528060005260406000206000915090505481565b60008060008373ffffffffffffffffffffffffffffffffffffffff1673ffffffffffffffffffffffffffffffffffffffff168152602001908152602001600020549050919050565b610c0f82610c09611107565b836112da565b610c1982826115e7565b5050565b60086020528060005260406000206000915090505481565b606060048054610c4490611d37565b80601f0160208091040260200160405190810160405280929190818152602001828054610c7090611d37565b8015610cbd5780601f10610c9257610100808354040283529160200191610cbd565b820191906000526020600020905b815481529060010190602001808311610ca057829003601f168201915b5050505050905090565b600080610cd2611107565b90506000610ce08286610d61565b905083811015610d25576040517f08c379a0000000000000000000000000000000000000000000000000000000008152600401610d1c90611fea565b60405180910390fd5b610d32828686840361110f565b60019250505092915050565b600080610d49611107565b9050610d56818585611366565b600191505092915050565b6000600160008473ffffffffffffffffffffffffffffffffffffffff1673ffffffffffffffffffffffffffffffffffffffff16815260200190815260200160002060008373ffffffffffffffffffffffffffffffffffffffff1673ffffffffffffffffffffffffffffffffffffffff16815260200190815260200160002054905092915050565b6001341015610e2c576040517f08c379a0000000000000000000000000000000000000000000000000000000008152600401610e2390612056565b60405180910390fd5b60006064605a34610e3d9190612076565b610e4791906120ff565b9050601442610e569190611d98565b600760003373ffffffffffffffffffffffffffffffffffffffff1673ffffffffffffffffffffffffffffffffffffffff1681526020019081526020016000208190555080600860003373ffffffffffffffffffffffffffffffffffffffff1673ffffffffffffffffffffffffffffffffffffffff1681526020019081526020016000206000828254610ee89190611d98565b9250508190555060008134610efd9190612130565b905080600960003373ffffffffffffffffffffffffffffffffffffffff1673ffffffffffffffffffffffffffffffffffffffff1681526020019081526020016000206000828254610f4e9190611d98565b925050819055506000600560009054906101000a900473ffffffffffffffffffffffffffffffffffffffff1673ffffffffffffffffffffffffffffffffffffffff1682604051610f9d90611ef7565b60006040518083038185875af1925050503d8060008114610fda576040519150601f19603f3d011682016040523d82523d6000602084013e610fdf565b606091505b5050905080611023576040517f08c379a000000000000000000000000000000000000000000000000000000000815260040161101a906121d6565b60405180910390fd5b6000670de0b6b3a76400003461103991906120ff565b90506000670de0b6b3a76400006103e8836110549190612076565b61105e9190612076565b9050670de0b6b3a76400003411801561107e5750674563918244f4000034105b156110bb5760006064600a836110949190612076565b61109e91906120ff565b826110a99190611d98565b90506110b533826117be565b50611100565b674563918244f400003411156110ff57600060646014836110dc9190612076565b6110e691906120ff565b826110f19190611d98565b90506110fd33826117be565b505b5b5050505050565b600033905090565b600073ffffffffffffffffffffffffffffffffffffffff168373ffffffffffffffffffffffffffffffffffffffff16141561117f576040517f08c379a000000000000000000000000000000000000000000000000000000000815260040161117690612268565b60405180910390fd5b600073ffffffffffffffffffffffffffffffffffffffff168273ffffffffffffffffffffffffffffffffffffffff1614156111ef576040517f08c379a00000000000000000000000000000000000000000000000000000000081526004016111e6906122fa565b60405180910390fd5b80600160008573ffffffffffffffffffffffffffffffffffffffff1673ffffffffffffffffffffffffffffffffffffffff16815260200190815260200160002060008473ffffffffffffffffffffffffffffffffffffffff1673ffffffffffffffffffffffffffffffffffffffff168152602001908152602001600020819055508173ffffffffffffffffffffffffffffffffffffffff168373ffffffffffffffffffffffffffffffffffffffff167f8c5be1e5ebec7d5bd14f71427d1e84f3dd0314c0f7b2291e5b200ac8c7c3b925836040516112cd9190611b01565b60405180910390a3505050565b60006112e68484610d61565b90507fffffffffffffffffffffffffffffffffffffffffffffffffffffffffffffffff81146113605781811015611352576040517f08c379a000000000000000000000000000000000000000000000000000000000815260040161134990612366565b60405180910390fd5b61135f848484840361110f565b5b50505050565b600073ffffffffffffffffffffffffffffffffffffffff168373ffffffffffffffffffffffffffffffffffffffff1614156113d6576040517f08c379a00000000000000000000000000000000000000000000000000000000081526004016113cd906123f8565b60405180910390fd5b600073ffffffffffffffffffffffffffffffffffffffff168273ffffffffffffffffffffffffffffffffffffffff161415611446576040517f08c379a000000000000000000000000000000000000000000000000000000000815260040161143d9061248a565b60405180910390fd5b61145183838361191e565b60008060008573ffffffffffffffffffffffffffffffffffffffff1673ffffffffffffffffffffffffffffffffffffffff168152602001908152602001600020549050818110156114d7576040517f08c379a00000000000000000000000000000000000000000000000000000000081526004016114ce9061251c565b60405180910390fd5b8181036000808673ffffffffffffffffffffffffffffffffffffffff1673ffffffffffffffffffffffffffffffffffffffff16815260200190815260200160002081905550816000808573ffffffffffffffffffffffffffffffffffffffff1673ffffffffffffffffffffffffffffffffffffffff168152602001908152602001600020600082825461156a9190611d98565b925050819055508273ffffffffffffffffffffffffffffffffffffffff168473ffffffffffffffffffffffffffffffffffffffff167fddf252ad1be2c89b69c2b068fc378daa952ba7f163c4a11628f55a4df523b3ef846040516115ce9190611b01565b60405180910390a36115e1848484611923565b50505050565b600073ffffffffffffffffffffffffffffffffffffffff168273ffffffffffffffffffffffffffffffffffffffff161415611657576040517f08c379a000000000000000000000000000000000000000000000000000000000815260040161164e906125ae565b60405180910390fd5b6116638260008361191e565b60008060008473ffffffffffffffffffffffffffffffffffffffff1673ffffffffffffffffffffffffffffffffffffffff168152602001908152602001600020549050818110156116e9576040517f08c379a00000000000000000000000000000000000000000000000000000000081526004016116e090612640565b60405180910390fd5b8181036000808573ffffffffffffffffffffffffffffffffffffffff1673ffffffffffffffffffffffffffffffffffffffff1681526020019081526020016000208190555081600260008282546117409190612130565b92505081905550600073ffffffffffffffffffffffffffffffffffffffff168373ffffffffffffffffffffffffffffffffffffffff167fddf252ad1be2c89b69c2b068fc378daa952ba7f163c4a11628f55a4df523b3ef846040516117a59190611b01565b60405180910390a36117b983600084611923565b505050565b600073ffffffffffffffffffffffffffffffffffffffff168273ffffffffffffffffffffffffffffffffffffffff16141561182e576040517f08c379a0000000000000000000000000000000000000000000000000000000008152600401611825906126ac565b60405180910390fd5b61183a6000838361191e565b806002600082825461184c9190611d98565b92505081905550806000808473ffffffffffffffffffffffffffffffffffffffff1673ffffffffffffffffffffffffffffffffffffffff16815260200190815260200160002060008282546118a19190611d98565b925050819055508173ffffffffffffffffffffffffffffffffffffffff16600073ffffffffffffffffffffffffffffffffffffffff167fddf252ad1be2c89b69c2b068fc378daa952ba7f163c4a11628f55a4df523b3ef836040516119069190611b01565b60405180910390a361191a60008383611923565b5050565b505050565b505050565b600081519050919050565b600082825260208201905092915050565b60005b83811015611962578082015181840152602081019050611947565b83811115611971576000848401525b50505050565b6000601f19601f8301169050919050565b600061199382611928565b61199d8185611933565b93506119ad818560208601611944565b6119b681611977565b840191505092915050565b600060208201905081810360008301526119db8184611988565b905092915050565b600080fd5b600073ffffffffffffffffffffffffffffffffffffffff82169050919050565b6000611a13826119e8565b9050919050565b611a2381611a08565b8114611a2e57600080fd5b50565b600081359050611a4081611a1a565b92915050565b6000819050919050565b611a5981611a46565b8114611a6457600080fd5b50565b600081359050611a7681611a50565b92915050565b60008060408385031215611a9357611a926119e3565b5b6000611aa185828601611a31565b9250506020611ab285828601611a67565b9150509250929050565b60008115159050919050565b611ad181611abc565b82525050565b6000602082019050611aec6000830184611ac8565b92915050565b611afb81611a46565b82525050565b6000602082019050611b166000830184611af2565b92915050565b6000819050919050565b6000611b41611b3c611b37846119e8565b611b1c565b6119e8565b9050919050565b6000611b5382611b26565b9050919050565b6000611b6582611b48565b9050919050565b611b7581611b5a565b82525050565b6000602082019050611b906000830184611b6c565b92915050565b600080600060608486031215611baf57611bae6119e3565b5b6000611bbd86828701611a31565b9350506020611bce86828701611a31565b9250506040611bdf86828701611a67565b9150509250925092565b600060ff82169050919050565b611bff81611be9565b82525050565b6000602082019050611c1a6000830184611bf6565b92915050565b600060208284031215611c3657611c356119e3565b5b6000611c4484828501611a67565b91505092915050565b6000611c5882611b26565b9050919050565b6000611c6a82611c4d565b9050919050565b611c7a81611c5f565b82525050565b6000602082019050611c956000830184611c71565b92915050565b600060208284031215611cb157611cb06119e3565b5b6000611cbf84828501611a31565b91505092915050565b60008060408385031215611cdf57611cde6119e3565b5b6000611ced85828601611a31565b9250506020611cfe85828601611a31565b9150509250929050565b7f4e487b7100000000000000000000000000000000000000000000000000000000600052602260045260246000fd5b60006002820490506001821680611d4f57607f821691505b60208210811415611d6357611d62611d08565b5b50919050565b7f4e487b7100000000000000000000000000000000000000000000000000000000600052601160045260246000fd5b6000611da382611a46565b9150611dae83611a46565b9250827fffffffffffffffffffffffffffffffffffffffffffffffffffffffffffffffff03821115611de357611de2611d69565b5b828201905092915050565b7f696e73756666696369656e742066756e64730000000000000000000000000000600082015250565b6000611e24601283611933565b9150611e2f82611dee565b602082019050919050565b60006020820190508181036000830152611e5381611e17565b9050919050565b7f6c6f636b2074696d6520686173206e6f74206578706972656400000000000000600082015250565b6000611e90601983611933565b9150611e9b82611e5a565b602082019050919050565b60006020820190508181036000830152611ebf81611e83565b9050919050565b600081905092915050565b50565b6000611ee1600083611ec6565b9150611eec82611ed1565b600082019050919050565b6000611f0282611ed4565b9150819050919050565b7f4661696c656420746f2073656e64206574686572000000000000000000000000600082015250565b6000611f42601483611933565b9150611f4d82611f0c565b602082019050919050565b60006020820190508181036000830152611f7181611f35565b9050919050565b7f45524332303a2064656372656173656420616c6c6f77616e63652062656c6f7760008201527f207a65726f000000000000000000000000000000000000000000000000000000602082015250565b6000611fd4602583611933565b9150611fdf82611f78565b604082019050919050565b6000602082019050818103600083015261200381611fc7565b9050919050565b7f4554482076616c7565206973206c65617373207468616e203120455448000000600082015250565b6000612040601d83611933565b915061204b8261200a565b602082019050919050565b6000602082019050818103600083015261206f81612033565b9050919050565b600061208182611a46565b915061208c83611a46565b9250817fffffffffffffffffffffffffffffffffffffffffffffffffffffffffffffffff04831182151516156120c5576120c4611d69565b5b828202905092915050565b7f4e487b7100000000000000000000000000000000000000000000000000000000600052601260045260246000fd5b600061210a82611a46565b915061211583611a46565b925082612125576121246120d0565b5b828204905092915050565b600061213b82611a46565b915061214683611a46565b92508282101561215957612158611d69565b5b828203905092915050565b7f53656e64696e672045544820746f204c6971756964697479506f6f6c2066616960008201527f6c65640000000000000000000000000000000000000000000000000000000000602082015250565b60006121c0602383611933565b91506121cb82612164565b604082019050919050565b600060208201905081810360008301526121ef816121b3565b9050919050565b7f45524332303a20617070726f76652066726f6d20746865207a65726f2061646460008201527f7265737300000000000000000000000000000000000000000000000000000000602082015250565b6000612252602483611933565b915061225d826121f6565b604082019050919050565b6000602082019050818103600083015261228181612245565b9050919050565b7f45524332303a20617070726f766520746f20746865207a65726f20616464726560008201527f7373000000000000000000000000000000000000000000000000000000000000602082015250565b60006122e4602283611933565b91506122ef82612288565b604082019050919050565b60006020820190508181036000830152612313816122d7565b9050919050565b7f45524332303a20696e73756666696369656e7420616c6c6f77616e6365000000600082015250565b6000612350601d83611933565b915061235b8261231a565b602082019050919050565b6000602082019050818103600083015261237f81612343565b9050919050565b7f45524332303a207472616e736665722066726f6d20746865207a65726f20616460008201527f6472657373000000000000000000000000000000000000000000000000000000602082015250565b60006123e2602583611933565b91506123ed82612386565b604082019050919050565b60006020820190508181036000830152612411816123d5565b9050919050565b7f45524332303a207472616e7366657220746f20746865207a65726f206164647260008201527f6573730000000000000000000000000000000000000000000000000000000000602082015250565b6000612474602383611933565b915061247f82612418565b604082019050919050565b600060208201905081810360008301526124a381612467565b9050919050565b7f45524332303a207472616e7366657220616d6f756e742065786365656473206260008201527f616c616e63650000000000000000000000000000000000000000000000000000602082015250565b6000612506602683611933565b9150612511826124aa565b604082019050919050565b60006020820190508181036000830152612535816124f9565b9050919050565b7f45524332303a206275726e2066726f6d20746865207a65726f2061646472657360008201527f7300000000000000000000000000000000000000000000000000000000000000602082015250565b6000612598602183611933565b91506125a38261253c565b604082019050919050565b600060208201905081810360008301526125c78161258b565b9050919050565b7f45524332303a206275726e20616d6f756e7420657863656564732062616c616e60008201527f6365000000000000000000000000000000000000000000000000000000000000602082015250565b600061262a602283611933565b9150612635826125ce565b604082019050919050565b600060208201905081810360008301526126598161261d565b9050919050565b7f45524332303a206d696e7420746f20746865207a65726f206164647265737300600082015250565b6000612696601f83611933565b91506126a182612660565b602082019050919050565b600060208201905081810360008301526126c581612689565b905091905056fea2646970667358221220f2475b8a3489acb501b0f7967b2af8628bbb801da042a0d8f8e54e76e30f5c1264736f6c63430008090033",
  "linkReferences": {},
  "deployedLinkReferences": {}
}