{
  "_format": "hh-sol-artifact-1",
  "contractName": "LiquidityPool",
  "sourceName": "contracts/LiquidityPool.sol",
  "abi": [
    {
      "inputs": [],
      "stateMutability": "nonpayable",
      "type": "constructor"
    },
    {
      "inputs": [],
      "name": "getBalance",
      "outputs": [
        {
          "internalType": "uint256",
          "name": "bal",
          "type": "uint256"
        }
      ],
      "stateMutability": "view",
      "type": "function"
    },
    {
      "inputs": [],
      "name": "owner",
      "outputs": [
        {
          "internalType": "address",
          "name": "",
          "type": "address"
        }
      ],
      "stateMutability": "view",
      "type": "function"
    },
    {
      "inputs": [],
      "name": "reservepool",
      "outputs": [
        {
          "internalType": "contract ReservePool",
          "name": "",
          "type": "address"
        }
      ],
      "stateMutability": "view",
      "type": "function"
    },
    {
      "inputs": [
        {
          "internalType": "address payable",
          "name": "_reservepool",
          "type": "address"
        }
      ],
      "name": "setAddress",
      "outputs": [],
      "stateMutability": "nonpayable",
      "type": "function"
    },
    {
      "inputs": [],
      "name": "tokenpay",
      "outputs": [
        {
          "internalType": "contract Tokenpay",
          "name": "",
          "type": "address"
        }
      ],
      "stateMutability": "view",
      "type": "function"
    },
    {
      "stateMutability": "payable",
      "type": "receive"
    }
  ],
  "bytecode": "0x608060405234801561001057600080fd5b50336000806101000a81548173ffffffffffffffffffffffffffffffffffffffff021916908373ffffffffffffffffffffffffffffffffffffffff1602179055506105fa806100606000396000f3fe60806040526004361061004e5760003560e01c806312065fe014610062578063160124361461008d57806322a1d71c146100b85780638da5cb5b146100e3578063e30081a01461010e5761005d565b3661005d5761005b610137565b005b600080fd5b34801561006e57600080fd5b506100776101c9565b604051610084919061032c565b60405180910390f35b34801561009957600080fd5b506100a26101d1565b6040516100af91906103c6565b60405180910390f35b3480156100c457600080fd5b506100cd6101f7565b6040516100da9190610414565b60405180910390f35b3480156100ef57600080fd5b506100f861021d565b6040516101059190610450565b60405180910390f35b34801561011a57600080fd5b50610135600480360381019061013091906104ae565b610241565b005b600260009054906101000a900473ffffffffffffffffffffffffffffffffffffffff1673ffffffffffffffffffffffffffffffffffffffff163373ffffffffffffffffffffffffffffffffffffffff16146101c7576040517f08c379a00000000000000000000000000000000000000000000000000000000081526004016101be90610538565b60405180910390fd5b565b600047905090565b600160009054906101000a900473ffffffffffffffffffffffffffffffffffffffff1681565b600260009054906101000a900473ffffffffffffffffffffffffffffffffffffffff1681565b60008054906101000a900473ffffffffffffffffffffffffffffffffffffffff1681565b60008054906101000a900473ffffffffffffffffffffffffffffffffffffffff1673ffffffffffffffffffffffffffffffffffffffff163373ffffffffffffffffffffffffffffffffffffffff16146102cf576040517f08c379a00000000000000000000000000000000000000000000000000000000081526004016102c6906105a4565b60405180910390fd5b80600260006101000a81548173ffffffffffffffffffffffffffffffffffffffff021916908373ffffffffffffffffffffffffffffffffffffffff16021790555050565b6000819050919050565b61032681610313565b82525050565b6000602082019050610341600083018461031d565b92915050565b600073ffffffffffffffffffffffffffffffffffffffff82169050919050565b6000819050919050565b600061038c61038761038284610347565b610367565b610347565b9050919050565b600061039e82610371565b9050919050565b60006103b082610393565b9050919050565b6103c0816103a5565b82525050565b60006020820190506103db60008301846103b7565b92915050565b60006103ec82610371565b9050919050565b60006103fe826103e1565b9050919050565b61040e816103f3565b82525050565b60006020820190506104296000830184610405565b92915050565b600061043a82610347565b9050919050565b61044a8161042f565b82525050565b60006020820190506104656000830184610441565b92915050565b600080fd5b600061047b82610347565b9050919050565b61048b81610470565b811461049657600080fd5b50565b6000813590506104a881610482565b92915050565b6000602082840312156104c4576104c361046b565b5b60006104d284828501610499565b91505092915050565b600082825260208201905092915050565b7f4f6e6c792072657365727665706f6f6c20616464726573730000000000000000600082015250565b60006105226018836104db565b915061052d826104ec565b602082019050919050565b6000602082019050818103600083015261055181610515565b9050919050565b7f4e6f74206f776e65722121000000000000000000000000000000000000000000600082015250565b600061058e600b836104db565b915061059982610558565b602082019050919050565b600060208201905081810360008301526105bd81610581565b905091905056fea2646970667358221220665ccea768d5b368cc1be4c457cde4f8a79be613db39f5437532c6f4d1bd58f264736f6c63430008090033",
  "linkReferences": {},
  "deployedLinkReferences": {}
}