{
  "_format": "hh-sol-artifact-1",
  "contractName": "StakingPool",
  "sourceName": "contracts/StakingPool.sol",
  "abi": [
    {
      "inputs": [
        {
          "internalType": "address payable",
          "name": "_tokenpay",
          "type": "address"
        }
      ],
      "stateMutability": "nonpayable",
      "type": "constructor"
    },
    {
      "inputs": [
        {
          "internalType": "address",
          "name": "_address",
          "type": "address"
        }
      ],
      "name": "balanceOf",
      "outputs": [
        {
          "internalType": "uint256",
          "name": "",
          "type": "uint256"
        }
      ],
      "stateMutability": "view",
      "type": "function"
    },
    {
      "inputs": [],
      "name": "tokenpay",
      "outputs": [
        {
          "internalType": "contract Tokenpay",
          "name": "",
          "type": "address"
        }
      ],
      "stateMutability": "view",
      "type": "function"
    }
  ],
  "bytecode": "0x608060405234801561001057600080fd5b50604051610472380380610472833981810160405281019061003291906100db565b806000806101000a81548173ffffffffffffffffffffffffffffffffffffffff021916908373ffffffffffffffffffffffffffffffffffffffff16021790555050610108565b600080fd5b600073ffffffffffffffffffffffffffffffffffffffff82169050919050565b60006100a88261007d565b9050919050565b6100b88161009d565b81146100c357600080fd5b50565b6000815190506100d5816100af565b92915050565b6000602082840312156100f1576100f0610078565b5b60006100ff848285016100c6565b91505092915050565b61035b806101176000396000f3fe608060405234801561001057600080fd5b50600436106100365760003560e01c8063160124361461003b57806370a0823114610059575b600080fd5b610043610089565b60405161005091906101e3565b60405180910390f35b610073600480360381019061006e9190610241565b6100ad565b6040516100809190610287565b60405180910390f35b60008054906101000a900473ffffffffffffffffffffffffffffffffffffffff1681565b60008060008054906101000a900473ffffffffffffffffffffffffffffffffffffffff1673ffffffffffffffffffffffffffffffffffffffff166370a08231846040518263ffffffff1660e01b815260040161010991906102b1565b60206040518083038186803b15801561012157600080fd5b505afa158015610135573d6000803e3d6000fd5b505050506040513d601f19601f8201168201806040525081019061015991906102f8565b905080915050919050565b600073ffffffffffffffffffffffffffffffffffffffff82169050919050565b6000819050919050565b60006101a96101a461019f84610164565b610184565b610164565b9050919050565b60006101bb8261018e565b9050919050565b60006101cd826101b0565b9050919050565b6101dd816101c2565b82525050565b60006020820190506101f860008301846101d4565b92915050565b600080fd5b600061020e82610164565b9050919050565b61021e81610203565b811461022957600080fd5b50565b60008135905061023b81610215565b92915050565b600060208284031215610257576102566101fe565b5b60006102658482850161022c565b91505092915050565b6000819050919050565b6102818161026e565b82525050565b600060208201905061029c6000830184610278565b92915050565b6102ab81610203565b82525050565b60006020820190506102c660008301846102a2565b92915050565b6102d58161026e565b81146102e057600080fd5b50565b6000815190506102f2816102cc565b92915050565b60006020828403121561030e5761030d6101fe565b5b600061031c848285016102e3565b9150509291505056fea26469706673582212207b8c4909cb45ec5a5026d84a927d484ad854ff20c8d982453c33736b9973ba8264736f6c63430008090033",
  "linkReferences": {},
  "deployedLinkReferences": {}
}